:03000000020AB140
:0C0AB100787FE4F6D8FD758113020AF886
:0A0C8300C0F9A4B0999282F88090A5
:060C8D00040A0000000053
:0A0C1F00E493FD120C7E7F647E005A
:100C2900D3EF9400EE940040177D64AC051DEC6091
:100C39000800000000000080F2EF1F70E31E80E052
:010C49002288
:050C7900E493FD7FDFA4
:050C7E008FA08D902203
:100BF000900C8B7FFE120C1F7FFD120C1FE493FDE7
:100C00007FFB120C22E493FD7FF7120C22E493FD8C
:0F0C10007FEF120C22120C797F647E00020C29F8
:100800008F138E128D118C10E47B0AFAF9F8120AFC
:100810000C74832BF582740C3AF583120C79E4F591
:100820000EF50F050FE50F7002050E640A450E70F8
:10083000F2AF13AE12AD11AC10E47B0AFAF9F81264
:100840000A0C8F138E128D118C10E47B0AFAF9F8C2
:10085000120A0C74832BF582740C3AF583E493FD31
:100860007FEF120C7EE4F50EF50F050FE50F700219
:10087000050E640A450E70F2AF13AE12AD11AC1046
:10088000E47B0AFAF9F8120A0C8F138E128D118C80
:1008900010E47B0AFAF9F8120A0C74832BF58274BF
:1008A0000C3AF583E493FD7FF7120C7EE4F50EF528
:1008B0000F050FE50F7002050E640A450E70F2AFCA
:1008C00013AE12AD11AC10E47B0AFAF9F8120A0C5F
:1008D0008F138E128D118C10E47B0AFAF9F8120A2C
:1008E0000C74832BF582740C3AF583E493FD7FFB43
:1008F000120C7EE4F50EF50F050FE50F7002050EE4
:10090000640A450E70F2AF13AE12AD11AC10E47B69
:100910000AFAF9F8120A0C8F138E128D118C10E45A
:100920007B0AFAF9F8120A0C74832BF582740C3ADC
:10093000F583E493FD7FFD120C7EE4F50EF50F05C3
:100940000FE50F7002050E640A450E70F2AF13AE8C
:1009500012AD11AC10E47B0AFAF9F8120A0C8F13ED
:100960008E128D118C107DAA7FFE120C7EE4F50E86
:10097000F50F050FE50F7002050E640A450E70F2C3
:010980002254
:03000B00020B974E
:100B9700C0E0C0D075D000C006C0070509E50970E0
:100BA700020508640E45087037C28DC28CB280AF4B
:100BB7008DEFFE3395E0750D008E0CF50BF50AAF42
:100BC7008BE50D4FF50DE50CF50CE50BF50BE50A7F
:100BD700F50A758B00758D00750800750900D28CB4
:090BE700D007D006D0D0D0E032D6
:060C9400438950D28E22BC
:0E0C6B00438901E4F58CF58A75A882D28C22AB
:100B3D008F138E128D118C10E47B06FAF9F81209C1
:100B4D00818F138E128D118C10C281E4F50EF50F6D
:100B5D00E5125480FEEE24FF9282D281C281AF1342
:100B6D00AE12AD11AC107801120A9E8F138E128D3C
:100B7D00118C10050FE50F7002050E6410450E70F7
:0A0B8D00CFC282C281D283C283224C
:100C4A00120BF0120C94120C6BAF0DAE0CAD0BAC78
:100C5A000A120800AF0DAE0CAD0BAC0A120B3D80A8
:010C6A00E8A1
:100ABD00020C4AE493A3F8E493A34003F68001F2F9
:100ACD0008DFF48029E493A3F85407240CC8C3333A
:100ADD00C4540F4420C8834004F456800146F6DF09
:100AED00E4800B0102040810204080900C8DE47E00
:100AFD00019360BCA3FF543F30E509541FFEE493FE
:100B0D00A360010ECF54C025E060A840B8E493A3C4
:100B1D00FAE493A3F8E493A3C8C582C8CAC583CAEF
:100B2D00F0A3C8C582C8CAC583CADFE9DEE780BEA7
:010C93000060
:10098100E88FF0A4CC8BF0A42CFCE98EF0A42CFC15
:100991008AF0EDA42CFCEA8EF0A4CDA8F08BF0A493
:1009A1002DCC3825F0FDE98FF0A42CCD35F0FCEBF2
:1009B1008EF0A4FEA9F0EB8FF0A4CFC5F02ECD39B7
:0F09C100FEE43CFCEAA42DCE35F0FDE43CFC2224
:1009D00075F008758200EF2FFFEE33FECD33CDCCDE
:1009E00033CCC58233C5829BED9AEC99E582984061
:1009F0000CF582EE9BFEED9AFDEC99FC0FD5F0D63E
:100A0000E4CEFBE4CDFAE4CCF9A88222B800C1B967
:100A10000059BA002DEC8BF084CFCECDFCE5F0CBA5
:100A2000F97818EF2FFFEE33FEED33FDEC33FCEBDE
:100A300033FB10D703994004EB99FB0FD8E5E4F999
:100A4000FA227818EF2FFFEE33FEED33FDEC33FC86
:100A5000C933C910D7059BE99A4007EC9BFCE99A7A
:100A6000F90FD8E0E4C9FAE4CCFB2275F010EF2FBF
:100A7000FFEE33FEED33FDCC33CCC833C810D707BF
:100A80009BEC9AE899400AED9BFDEC9AFCE899F8FA
:0E0A90000FD5F0DAE4CDFBE4CCFAE4C8F9228D
:100A9E00E8600FEFC333FFEE33FEED33FDEC33FCB6
:030AAE00D8F1225A
:00000001FF
